{
  "contractName": "CertificateContract",
  "abi": [
    {
      "inputs": [],
      "stateMutability": "nonpayable",
      "type": "constructor"
    },
    {
      "anonymous": false,
      "inputs": [
        {
          "indexed": false,
          "internalType": "uint256",
          "name": "id",
          "type": "uint256"
        },
        {
          "indexed": false,
          "internalType": "string",
          "name": "recipientName",
          "type": "string"
        },
        {
          "indexed": false,
          "internalType": "string",
          "name": "course",
          "type": "string"
        },
        {
          "indexed": false,
          "internalType": "string",
          "name": "issuingOrganization",
          "type": "string"
        },
        {
          "indexed": false,
          "internalType": "string",
          "name": "certificateHash",
          "type": "string"
        }
      ],
      "name": "CertificateIssued",
      "type": "event"
    },
    {
      "inputs": [],
      "name": "admin",
      "outputs": [
        {
          "internalType": "address",
          "name": "",
          "type": "address"
        }
      ],
      "stateMutability": "view",
      "type": "function",
      "constant": true
    },
    {
      "inputs": [],
      "name": "certificateCount",
      "outputs": [
        {
          "internalType": "uint256",
          "name": "",
          "type": "uint256"
        }
      ],
      "stateMutability": "view",
      "type": "function",
      "constant": true
    },
    {
      "inputs": [
        {
          "internalType": "uint256",
          "name": "",
          "type": "uint256"
        }
      ],
      "name": "certificates",
      "outputs": [
        {
          "internalType": "uint256",
          "name": "id",
          "type": "uint256"
        },
        {
          "internalType": "string",
          "name": "recipientName",
          "type": "string"
        },
        {
          "internalType": "string",
          "name": "course",
          "type": "string"
        },
        {
          "internalType": "string",
          "name": "issuingOrganization",
          "type": "string"
        },
        {
          "internalType": "string",
          "name": "certificateHash",
          "type": "string"
        }
      ],
      "stateMutability": "view",
      "type": "function",
      "constant": true
    },
    {
      "inputs": [
        {
          "internalType": "string",
          "name": "recipientName",
          "type": "string"
        },
        {
          "internalType": "string",
          "name": "course",
          "type": "string"
        },
        {
          "internalType": "string",
          "name": "issuingOrganization",
          "type": "string"
        },
        {
          "internalType": "string",
          "name": "certificateHash",
          "type": "string"
        }
      ],
      "name": "issueCertificate",
      "outputs": [],
      "stateMutability": "nonpayable",
      "type": "function"
    }
  ],
  "bytecode": "0x608060405234801561000f575f80fd5b50335f806101000a81548173ffffffffffffffffffffffffffffffffffffffff021916908373ffffffffffffffffffffffffffffffffffffffff1602179055505f600181905550610cbe806100635f395ff3fe608060405234801561000f575f80fd5b506004361061004a575f3560e01c806352d7b89c1461004e578063663b3e221461006c578063818a2994146100a0578063f851a440146100bc575b5f80fd5b6100566100da565b60405161006391906104ef565b60405180910390f35b61008660048036038101906100819190610543565b6100e0565b6040516100979594939291906105f8565b60405180910390f35b6100ba60048036038101906100b59190610791565b61032a565b005b6100c46104b4565b6040516100d191906108a4565b60405180910390f35b60015481565b6002602052805f5260405f205f91509050805f015490806001018054610105906108ea565b80601f0160208091040260200160405190810160405280929190818152602001828054610131906108ea565b801561017c5780601f106101535761010080835404028352916020019161017c565b820191905f5260205f20905b81548152906001019060200180831161015f57829003601f168201915b505050505090806002018054610191906108ea565b80601f01602080910402602001604051908101604052809291908181526020018280546101bd906108ea565b80156102085780601f106101df57610100808354040283529160200191610208565b820191905f5260205f20905b8154815290600101906020018083116101eb57829003601f168201915b50505050509080600301805461021d906108ea565b80601f0160208091040260200160405190810160405280929190818152602001828054610249906108ea565b80156102945780601f1061026b57610100808354040283529160200191610294565b820191905f5260205f20905b81548152906001019060200180831161027757829003601f168201915b5050505050908060040180546102a9906108ea565b80601f01602080910402602001604051908101604052809291908181526020018280546102d5906108ea565b80156103205780601f106102f757610100808354040283529160200191610320565b820191905f5260205f20905b81548152906001019060200180831161030357829003601f168201915b5050505050905085565b5f8054906101000a900473ffffffffffffffffffffffffffffffffffffffff1673ffffffffffffffffffffffffffffffffffffffff163373ffffffffffffffffffffffffffffffffffffffff16146103b7576040517f08c379a00000000000000000000000000000000000000000000000000000000081526004016103ae9061098a565b60405180910390fd5b60015f8154809291906103c9906109d5565b91905055506040518060a0016040528060015481526020018581526020018481526020018381526020018281525060025f60015481526020019081526020015f205f820151815f015560208201518160010190816104279190610bb9565b50604082015181600201908161043d9190610bb9565b5060608201518160030190816104539190610bb9565b5060808201518160040190816104699190610bb9565b509050507f4ab2fce7d5cd6dad399c8d8d6688f9be16fc4522adb8b6eaeea2ec4c5cf4d3fa600154858585856040516104a69594939291906105f8565b60405180910390a150505050565b5f8054906101000a900473ffffffffffffffffffffffffffffffffffffffff1681565b5f819050919050565b6104e9816104d7565b82525050565b5f6020820190506105025f8301846104e0565b92915050565b5f604051905090565b5f80fd5b5f80fd5b610522816104d7565b811461052c575f80fd5b50565b5f8135905061053d81610519565b92915050565b5f6020828403121561055857610557610511565b5b5f6105658482850161052f565b91505092915050565b5f81519050919050565b5f82825260208201905092915050565b5f5b838110156105a557808201518184015260208101905061058a565b5f8484015250505050565b5f601f19601f8301169050919050565b5f6105ca8261056e565b6105d48185610578565b93506105e4818560208601610588565b6105ed816105b0565b840191505092915050565b5f60a08201905061060b5f8301886104e0565b818103602083015261061d81876105c0565b9050818103604083015261063181866105c0565b9050818103606083015261064581856105c0565b9050818103608083015261065981846105c0565b90509695505050505050565b5f80fd5b5f80fd5b7f4e487b71000000000000000000000000000000000000000000000000000000005f52604160045260245ffd5b6106a3826105b0565b810181811067ffffffffffffffff821117156106c2576106c161066d565b5b80604052505050565b5f6106d4610508565b90506106e0828261069a565b919050565b5f67ffffffffffffffff8211156106ff576106fe61066d565b5b610708826105b0565b9050602081019050919050565b828183375f83830152505050565b5f610735610730846106e5565b6106cb565b90508281526020810184848401111561075157610750610669565b5b61075c848285610715565b509392505050565b5f82601f83011261077857610777610665565b5b8135610788848260208601610723565b91505092915050565b5f805f80608085870312156107a9576107a8610511565b5b5f85013567ffffffffffffffff8111156107c6576107c5610515565b5b6107d287828801610764565b945050602085013567ffffffffffffffff8111156107f3576107f2610515565b5b6107ff87828801610764565b935050604085013567ffffffffffffffff8111156108205761081f610515565b5b61082c87828801610764565b925050606085013567ffffffffffffffff81111561084d5761084c610515565b5b61085987828801610764565b91505092959194509250565b5f73ffffffffffffffffffffffffffffffffffffffff82169050919050565b5f61088e82610865565b9050919050565b61089e81610884565b82525050565b5f6020820190506108b75f830184610895565b92915050565b7f4e487b71000000000000000000000000000000000000000000000000000000005f52602260045260245ffd5b5f600282049050600182168061090157607f821691505b602082108103610914576109136108bd565b5b50919050565b7f4f6e6c792061646d696e2063616e20706572666f726d207468697320616374695f8201527f6f6e000000000000000000000000000000000000000000000000000000000000602082015250565b5f610974602283610578565b915061097f8261091a565b604082019050919050565b5f6020820190508181035f8301526109a181610968565b9050919050565b7f4e487b71000000000000000000000000000000000000000000000000000000005f52601160045260245ffd5b5f6109df826104d7565b91507fffffffffffffffffffffffffffffffffffffffffffffffffffffffffffffffff8203610a1157610a106109a8565b5b600182019050919050565b5f819050815f5260205f209050919050565b5f6020601f8301049050919050565b5f82821b905092915050565b5f60088302610a787fffffffffffffffffffffffffffffffffffffffffffffffffffffffffffffffff82610a3d565b610a828683610a3d565b95508019841693508086168417925050509392505050565b5f819050919050565b5f610abd610ab8610ab3846104d7565b610a9a565b6104d7565b9050919050565b5f819050919050565b610ad683610aa3565b610aea610ae282610ac4565b848454610a49565b825550505050565b5f90565b610afe610af2565b610b09818484610acd565b505050565b5b81811015610b2c57610b215f82610af6565b600181019050610b0f565b5050565b601f821115610b7157610b4281610a1c565b610b4b84610a2e565b81016020851015610b5a578190505b610b6e610b6685610a2e565b830182610b0e565b50505b505050565b5f82821c905092915050565b5f610b915f1984600802610b76565b1980831691505092915050565b5f610ba98383610b82565b9150826002028217905092915050565b610bc28261056e565b67ffffffffffffffff811115610bdb57610bda61066d565b5b610be582546108ea565b610bf0828285610b30565b5f60209050601f831160018114610c21575f8415610c0f578287015190505b610c198582610b9e565b865550610c80565b601f198416610c2f86610a1c565b5f5b82811015610c5657848901518255600182019150602085019450602081019050610c31565b86831015610c735784890151610c6f601f891682610b82565b8355505b6001600288020188555050505b50505050505056fea264697066735822122071f0146137c6944e2aa22784fa4a56bdbdec68295ba45e54760b5546bc8873f164736f6c63430008150033",
  "immutableReferences": {},
  "source": "// contracts/CertificateContract.sol\n// SPDX-License-Identifier: MIT\npragma solidity ^0.8.0;\n\ncontract CertificateContract {\n    address public admin;\n    uint256 public certificateCount;\n\n    struct Certificate {\n        uint256 id;\n        string recipientName;\n        string course;\n        string issuingOrganization;\n        string certificateHash;\n    }\n\n    mapping(uint256 => Certificate) public certificates;\n\n    event CertificateIssued(uint256 id, string recipientName, string course, string issuingOrganization, string certificateHash);\n\n    modifier onlyAdmin() {\n        require(msg.sender == admin, \"Only admin can perform this action\");\n        _;\n    }\n\n    constructor() {\n        admin = msg.sender;\n        certificateCount = 0;\n    }\n\n    function issueCertificate(string memory recipientName, string memory course, string memory issuingOrganization, string memory certificateHash) public onlyAdmin {\n        certificateCount++;\n        certificates[certificateCount] = Certificate(certificateCount, recipientName, course, issuingOrganization, certificateHash);\n        emit CertificateIssued(certificateCount, recipientName, course, issuingOrganization, certificateHash);\n    }\n}\n",
  "sourcePath": "/home/zorin/webtech/blockchain/proj1/contracts/CertificateContract.sol",
  "compiler": {
    "name": "solc",
    "version": "0.8.21+commit.d9974bed.Emscripten.clang"
  },
  "schemaVersion": "3.4.16",
  "updatedAt": "2023-12-09T16:21:52.713Z",
  "networkType": "ethereum",
  "devdoc": {
    "kind": "dev",
    "methods": {},
    "version": 1
  },
  "userdoc": {
    "kind": "user",
    "methods": {},
    "version": 1
  }
}